:020000040800F2
:1000000078060020A1020008A9020008AB0200083F
:10001000AD020008AF020008B102000800000000B5
:10002000000000000000000000000000B302000813
:10003000B502000800000000B7020008B90200087D
:10004000BB020008BB020008BB020008BB0200089C
:10005000BB020008BB020008BB020008BB0200088C
:10006000BB020008BB020008BB020008BB0200087C
:10007000BB020008BB020008BB020008BB0200086C
:10008000BB020008BB020008BB020008BB0200085C
:10009000BB020008BB020008BB020008BB0200084C
:1000A000BB020008BB020008BB020008BB0200083C
:1000B000BB020008BB020008BB020008BB0200082C
:1000C000BB020008BB020008BB020008BB0200081C
:1000D000BB020008BB020008BB020008BB0200080C
:1000E000BB020008BB020008BB020008BB020008FC
:1000F000BB020008BB020008BB020008BB020008EC
:10010000BB020008BB020008BB020008BB020008DB
:10011000BB020008BB020008BB020008BB020008CB
:10012000BB020008BB020008BB020008BB020008BB
:10013000BB020008BB020008BB020008BB020008AB
:10014000BB020008BB020008BB020008BB0200089B
:10015000BB020008BB020008BB020008BB0200088B
:10016000BB020008BB020008BB020008BB0200087B
:10017000BB020008BB020008BB020008BB0200086B
:10018000BB020008BB02000800F002F800F03CF8D7
:100190000AA090E8000C82448344AAF10107DA45E2
:1001A00001D100F031F8AFF2090EBAE80F0013F0F8
:1001B000010F18BFFB1A43F001031847B0030000FA
:1001C000D0030000103A24BF78C878C1FAD852078B
:1001D00024BF30C830C144BF04680C6070470000C1
:1001E0000023002400250026103A28BF78C1FBD840
:1001F000520728BF30C148BF0B6070471FB500F0E1
:10020000B0F91FBD10B510BD00F075F91146FFF72C
:10021000F5FF00F009F800F093F903B4FFF7F2FFDF
:1002200003BC00F097F9000008B5002000901848C2
:10023000006840F00100164908601648006840F464
:100240008010144908600846406948611FE000209A
:10025000009002E00098401C00900F4900988842EE
:10026000F8D30C48406940F480600A494861002096
:10027000009002E00098401C0090084900988842D5
:10028000F8D30448406920F4806002494861DEE701
:100290003038024000000240A0BB0D00400D0300BA
:1002A0000948804709480047FEE7FEE7FEE7FEE70A
:1002B000FEE7FEE7FEE7FEE7FEE7FEE70448054946
:1002C000054A064B70470000BD030008890100087D
:1002D00078000020780600207802002078020020B4
:1002E0000CB50020019000907648006840F4803002
:1002F0007449086000BF7348006800F40030009043
:100300000198401C0190009818B90198B0F5A04FD1
:10031000F1D16C48006800F4003010B10120009069
:1003200001E0002000900098012846D16548403047
:10033000006840F0805063494031086062480068BE
:1003400040F44040604908605E48083000685D49FC
:10035000083108600846006840F40040086008461C
:10036000006840F4A05008605848091F0860081F42
:10037000006840F08070091F086000BF51480068A5
:1003800000F000700028F9D040F205705049086074
:100390004C480830006820F003004A4908310860E2
:1003A0000846006840F00200086000BF4548083079
:1003B000006800F00C000828F8D10CBD10B54548C5
:1003C000006840F47000434908603E48006840F00F
:1003D00001003C49086000203A490831086039486A
:1003E00000683D490840374908603C48091D0860DD
:1003F000081F006820F48020091F08600020314990
:100400000C310860FFF76CFF4FF000603149803914
:10041000086010BD70B500200022022300240221D4
:10042000284D08352D6805F00C0020B1042806D0B1
:10043000082834D107E02A4D2A4E356033E02A4D92
:10044000284E35602FE01F4D2D1D2D68C5F38054BB
:100450001C4D2D1D2D6805F03F0154B1224DB5FBFB
:10046000F1F5184E361D3668C6F3881605FB06F200
:1004700009E01B4DB5FBF1F5124E361D3668C6F38B
:10048000881605FB06F20F4D2D1D2D68C5F301459D
:100490006D1C6B00B2FBF3F5124E356003E0104D9E
:1004A000104E356000BF00BF064D08352D68C5F3FE
:1004B00003150E4E705D0B4D2D68C540094E35601D
:1004C00070BD000000380240007000401954400721
:1004D000003C024088ED00E0FFFFF6FE10300024F3
:1004E0000024F4000000002040787D01040000207A
:1004F000704770477047754600F028F8AE46050013
:100500006946534620F00700854618B020B5FFF72E
:10051000D5FEBDE820404FF000064FF000074FF039
:1005200000084FF0000B21F00701AC46ACE8C00911
:10053000ACE8C009ACE8C009ACE8C0098D4670471A
:100540000446AFF300802046FFF767FE004870477F
:100550001400002001491820ABBEFEE7260002006F
:1005600070474FF04070E1EE100A70478C050008AC
:100570000000002014000000C4010008A0050008CD
:100580001400002064060000E0010008007A030A5D
:100590000000000000000000010203040607080933
:04000005080002A14C
:00000001FF
