:020000040800F2
:10000000200800208D0100088901000889010008EE
:10001000890100088901000889010008000000002A
:10002000000000000000000000000000890100083E
:100030008901000800000000890100080902000889
:100040008901000889010008890100088901000868
:100050008901000889010008890100088901000858
:100060008901000889010008890100088901000848
:100070008901000889010008890100088901000838
:100080008901000889010008890100088901000828
:100090008901000889010008890100088901000818
:1000A0008901000889010008890100088901000808
:1000B00089010008890100088901000889010008F8
:1000C00089010008890100088901000889010008E8
:1000D00089010008890100088901000889010008D8
:1000E00089010008890100088901000889010008C8
:1000F00089010008890100088901000889010008B8
:1001000089010008890100088901000889010008A7
:100110008901000889010008890100088901000897
:100120008901000889010008890100088901000887
:100130008901000889010008890100088901000877
:100140008901000889010008890100088901000867
:100150008901000889010008890100088901000857
:100160008901000889010008890100088901000847
:100170008901000889010008890100088901000837
:100180008901000889010008FEE700BF10B5124B85
:10019000124A9A420DD2131D114CE41A24F00304A2
:1001A0000434002310460F495A581A500433A3420E
:1001B000FAD10D480D494FF000028842B8BF40F80F
:1001C000042BFFF6FAAFDFF82800016841F4700154
:1001D000016000F03FF810BD140000200000002076
:1001E0001700002008050008140000201C00002053
:1001F00088ED00E0034B19681A4613685B1A8342C6
:10020000FBD3704714000020024B1A6801321A60B9
:10021000704700BF1800002000B583B001200146E0
:1002200000F050F84FF48063009301238DF8043000
:1002300002238DF8053000238DF806308DF8073045
:100240000348694600F04CF803B05DF804FB00BFBA
:100250000000024070B500F091F800F00FF9144B67
:100260001A68144BA3FB02129209013A124B5A600E
:10027000F021124A82F8231000229A6007221A60A5
:10028000FFF7CAFF4FF461760D4D4FF4806430469E
:10029000FFF7B0FF28462146012200F069F8C82088
:1002A000FFF7A8FF28462146002200F061F8EEE79C
:1002B00000000020D34D621010E000E000ED00E0EF
:1002C0000000024021B1054B1A6B104318637047C0
:1002D000024B1A6B22EA0000186370470038024094
:1002E000F0B400230125032605FA03F20C6814403C
:1002F000944238D107685A0006FA02F4E4432740D2
:100300000760076891F804C00CFA02FC4CEA070782
:1003100007600F79013FFFB2012F16D887683C4074
:10032000846087684C7994403C43846047689CB201
:1003300005FA04FC27EA0C074760476891F806C0F5
:100340000CFA04F4A4B23C434460C7689CB2640055
:1003500006FA04F427EA0404C460C468CF7907FAF3
:1003600002F22243C2600133102BBDD1F0BC7047B2
:100370000AB1018370474183704700BF82B0394B97
:10038000D3F8882042F47002C3F88820364B1A68EC
:1003900042F001021A6000229A60196821F084710B
:1003A00021F48031196031495960196821F48021A4
:1003B0001960DA60009201921A6842F480321A6081
:1003C0001A46136803F400330193009B0133009332
:1003D000019B1BB9009BB3F5A04FF2D1224B1B68C8
:1003E00013F4003F14BF012300230193019B012B51
:1003F00032D11D4B1A6C42F080521A641C4A1168AB
:1004000041F4804111609A689A609A6842F400420F
:100410009A609A6842F4A0529A60164A5A601A6822
:1004200042F080721A601A46136813F0007FFBD006
:1004300040F20562104B1A60A3F580639A6822F0BF
:1004400003029A609A6842F002029A601A46936820
:1004500003F00C03082BFAD14FF00062014B9A60B5
:1004600002B0704700ED00E0003802401030002478
:100470000070004019544007003C02401E4B9B682E
:1004800003F00C03042B06D0082B08D023BB1B4A17
:100490001B4B1A6023E01B4A194B1A601FE0164BD6
:1004A00059685B6803F03F0311F4800F124A5168EA
:1004B000C1F3881114BF134A104AB2FBF3F202FBD6
:1004C00001F20D4B5B68C3F3014301335B00B2FBE8
:1004D000F3F20B4B1A6002E0084A094B1A60064B14
:1004E0009A68C2F30312064B1A441179C9B21A680A
:1004F000CA401A60704700BF003802400024F40070
:080500000000002040787D019D
:10050800007A030A00000000000000000102030452
:0405180006070809C1
:0400000508000000EF
:00000001FF
