S315080200000CE000201D000208310002083100020837
S3150802001031000208310002083100020802F0D2B8A3
S31508020020DFF808D002F03EF902F0E0B9F8FF001056
S31508020030FEE76E2900F08884702900F0D9856629C2
S3150802004031F02781652931F02481672931F0218130
S31508020050612931F0208103681B0A28BF41F080011B
S31508020060692900F03584642900F03284752900F084
S315080200702F846F2900F06485782900F0A585E9297F
S3150802008000F0FC84E42900F0F984F52900F0F684EE
S31508020090EF2900F06185F82900F0A4850368DB09D9
S315080200A028BF41F08001632901F08E83732901F08C
S315080200B09383E32901F09E83F32901F0A3830020A9
S315080200C07047000040BA7047C0BA704700BEFEE7E4
S315080200D07047704753EA020C00F069802DE9F04B2D
S315080200E04FF00006002B1FBFB3FA83F503FA05F497
S315080200F024FA05F65E4012BF1643B2FA82F502FAF0
S3150802010005F4C5F120051EBF22FA05FC44EA0C04D3
S31508020110203556EA044C4FEA144418BF641C4FF0C3
S3150802012000084FF00009904271EB030C39D30029FD
S3150802013019BFB1FA81F701FA07F6B0FA80F700FAA1
S3150802014007F6C7F120071EBF20FA07FC46EA0C0687
S315080201502037B6FBF4FCA7EB0507103F07F01F0B89
S31508020160CBF120060CFA0BFB2CFA06F644BFB34673
S315080201700026202FA4BF5E464FF0000B5BEA060C52
S3150802018008BF4FF0010B19EB0B09ABFB027C48EBDE
S315080201900608C01B06FB02CC0BFB03CC71EB0C0159
S315080201A0C1E70B46024641464846BDE8F08B13B501
S315080201B04FF000004FF0000100F014FBBDE81C40B0
S315080201C07047B2F120030AD5C2F1200301FA02F1FF
S315080201D020FA03F300FA02F041EA0301704700FA33
S315080201E003F14FF000007047B2F120030AD5C2F1BD
S315080201F0200320FA02F001FA03F321FA02F140EA97
S315080202000300704721FA03F04FF000017047B2F17C
S3150802021020030AD5C2F1200320FA02F001FA03F3F9
S3150802022041FA02F140EA0300704741FA03F04FEA45
S31508020230E171704710B54C1084EA530404D5404264
S31508020240C1F1000138BF491E1B4204D55242C3F10F
S31508020250000338BF5B1EFFF73DFF14F0804F04D042
S315080202604042C1F1000138BF491E14F0004F04D0C4
S315080202705242C3F1000338BF5B1E10BD7CB515465A
S315080202801A460C00009001D02044401E074B7B44BE
S3150802029069460190284600F072FB05461CB100200B
S315080202A0694600F07FFB28467CBD00001D0700005A
S315080202B00A460146014800F0BABD000080690010EE
S315080202C02DE9F04782460E4614469846DDF82090F8
S315080202D094B1012C0BD04A465046650805FB0867BF
S315080202E03946904700280CD00DDA2C46F0E74A46E4
S315080202F031465046904710B10020BDE8F087304697
S31508020300FBE73846F9E7641B641E07EB0806DFE7D6
S31508020310401ECAB210F8011F8A4202D00029F9D13A
S315080203200020704740EA010310B59B070FD1042A43
S315080203300DD310C808C9121F9C42F8D020BA19BAA0
S31508020340884201D9012010BD4FF0FF3010BD1AB105
S31508020350D30703D0521C07E0002010BD10F8013B5A
S3150802036011F8014B1B1B07D110F8013B11F8014B81
S315080203701B1B01D1921EF1D1184610BD40EA01039A
S31508020380024630B59B0710D14FF0013400E008C28F
S3150802039008C91D1B9D4315EAC41FF8D013F0FF01B7
S315080203A002F8011B0DD01B0AF8E711F8013B002BD6
S315080203B002F8013B05D011F8013B002B02F8013B7C
S315080203C0F3D130BD40EA010370B59B072ED14FF039
S315080203D00136042A2AD308C810C9121F9D1B9D4339
S315080203E015EAC61517D0D8B2E1B2401A50EA056125
S315080203F010D198B2A1B2401A50EA05410AD123F0A7
S315080204007F4024F07F41401A50EA052102D1180E96
S31508020410A0EB146070BDA342DBD018BA21BA884299
S3150802042001D9012070BD4FF0FF3070BD0AB9002016
S3150802043070BD10F8013B11F8014B63B1A3420AD112
S31508020440521E08D010F8013B11F8014B1BB1A3420A
S3150802045001D1521EEDD1181B70BD032A40F230801D
S3150802046010F0030C00F0158011F8013BBCF1020FE5
S31508020470624498BF11F801CB00F8013B38BF11F866
S31508020480013BA2F1040298BF00F801CB38BF00F87D
S31508020490013B11F0030300F06780083AC0F00880B8
S315080204A051F8043B083A51F804CBA0E80810F5E7DE
S315080204B0121D5CBF51F8043B40F8043BAFF30080C1
S315080204C0D20724BF11F8013B11F801CB48BF11F836
S315080204D0012B24BF00F8013B00F801CB48BF00F806
S315080204E0012B7047431A28BF9A427FF6B6AF032AF2
S315080204F01044114440F2268010F0030F1EBF11F873
S31508020500013D521E00F8013D10F0030F7FF4F6AFCD
S3150802051011F0030300F06D80083AC0F00B8051F821
S31508020520043D083A51F804CD40F8043D40F804CD9C
S31508020530FFF7F3BF121D5CBF51F8043D40F8043DB6
S31508020540AFF30080D20724BF11F8013D11F801CD9F
S3150802055048BF11F8012C24BF00F8013D00F801CD6F
S3150802056048BF00F8012C704710B5203AC0F00B803E
S31508020570B1E81850203AA0E81850B1E81850A0E897
S315080205801850BFF4F5AF5FEA027C24BFB1E81850F1
S31508020590A0E8185044BF18C918C0BDE810405FEA61
S315080205A0827C24BF51F8043B40F8043B08BF7047DD
S315080205B0D20728BF31F8023B48BF11F8012B28BFE2
S315080205C020F8023B48BF00F8012B7047431A28BFA0
S315080205D09A427FF6C9AF104410F0030F11441EBFAA
S315080205E011F8013D521E00F8013D10F0030F7FF489
S315080205F0F6AF103AC0F00A8010B531E91850103A31
S3150802060020E91850BFF4F9AFBDE81040530724BFDC
S3150802061031E9081020E9081044BF51F8043D40F8B2
S31508020620043D12F0030F08BF7047D20728BF31F8FE
S31508020630023D48BF11F8012C28BF20F8023D48BFE9
S3150802064000F8012C704702F0FF0343EA032242EA4C
S31508020650024200F002B84FF000020429C0F01280EC
S3150802066010F0030C00F01B80CCF1040CBCF1020F55
S3150802067018BF00F8012BA8BF20F8022BA1EB0C012A
S3150802068000F00DB85FEAC17C24BF00F8012B00F820
S31508020690012B48BF00F8012B70474FF0000200B546
S315080206A0134694469646203922BFA0E80C50A0E885
S315080206B00C50B1F12001BFF4F7AF090728BFA0E833
S315080206C00C5048BF0CC05DF804EB890028BF40F8FF
S315080206D0042B08BF704748BF20F8022B11F0804F41
S315080206E018BF00F8012B704710B5044610F0030F27
S315080206F008BF11F0030F40F015804FF0013E121F9C
S31508020700C0F20E8051F8043BA3EB0E0C2CEA030C44
S315080207101CEACE1C08BF40F8043BF0D0A1F1040144
S3150802072002F10402521E08DB11F8013B002B00F805
S31508020730013BF7D11146FFF78EFF204610BD000098
S315080207404FF0013C50F8042B51F8043B9A4221D150
S31508020750A2EB0C03934313EACC1317D150F8042BDC
S3150802076051F8043B9A4215D1A2EB0C03934313EAC0
S31508020770CC130BD150F8042B51F8043B9A4209D1F9
S31508020780A2EB0C03934313EACC13DBD04FF0000021
S31508020790704700BFD01A01BAB1FA81F101F0180107
S315080207A022FA01F0CB40C1F12001DBB2C0B2C01A75
S315080207B02CFA01F3D11A914311EAC311E6D1704713
S315080207C070B5064C7C44064D7D4403E020682044FF
S315080207D08047241DAC42F9D170BD0000389F030042
S315080207E0409F03002CF044BF00487047AC690010D4
S315080207F010B500F0A7FB006810BD10B5044600F05E
S31508020800A1FB046010BD70B5044685690068C1067F
S3150802081001D5302600E02026C00708D070BDD4E9ED
S31508020820012130469047206A00F1010020626D1EC0
S31508020830F5D570BD70B5044685690068C00708D14C
S3150802084070BDD4E9012120209047206A00F10100F9
S3150802085020626D1EF5D570BD09684A0501D540B2FC
S315080208607047C905FCD500B2704709684A0501D523
S31508020870C0B27047C905FCD580B2704770B5054647
S315080208800C46012A05D02868800600D5EA690023A5
S3150802089002E0012305E05B1C934202D2E05C0028D9
S315080208A0F9D1A869E618C01AA861286A1844286204
S315080208B02846FFF7A8FF04E0D5E9012114F8010B41
S315080208C09047B442F8D32846FFF7B4FF70BD00003C
S315080208D02DE9F0410746002510687529394616A400
S315080208E011D0FFF7B9FF002803DAC0F1000013A4FC
S315080208F007E039688A0701D511A402E0490704D539
S3150802090010A4012501E0FFF7B0FF00210A2307F131
S31508020910240607E0B0FBF3F203FB120030307054F2
S315080209201046491C0028F5D12B4622463846BDE812
S31508020930F04100F050BB0000000000002D0000004E
S315080209402B0000002000000011680268006A5305A7
S3150802095001D508700BE0D30501D5088007E0130618
S3150802096003D5C217C1E9000201E052060860012058
S315080209707047000001694A1C02610878704700B591
S315080209808FB0CDE901310021059105497944CDE9B8
S3150802099003101146684600F037F90FB000BD000093
S315080209A0E5FFFFFF0A6802F8010B0A607047D1E902
S315080209B000239A4202D2531C0B6010707047000043
S315080209C02DE9FF5F04468A461546DFF8AC80F844EF
S315080209D00027D8E900103E46CDE9001011E03AF8A2
S315080209E016106A4602A800F011FF411C07D02168BA
S315080209F0890603D5E269391891420ED8074406F1E9
S31508020A0001062068800602D5E069B84205DDAE42D5
S31508020A10E5DB3AF816000028E1D1A069C01BA061FF
S31508020A202046FFF7F0FED8E90010CDE900100020B5
S31508020A3016E03AF818106A4602A800F0E7FE814660
S31508020A40401C0BD000250DF1080B05E0D4E9012165
S31508020A501BF8050090476D1C4D45F7D308F10100B8
S31508020A60B0428046E5DB206A384420622046FFF71A
S31508020A70E1FEBDE8FF9F0000567E03002DE9F04126
S31508020A808046D21D22F007020026D2E90002F52985
S31508020A9014A512D0002A06DA0023D0EB030063EB72
S31508020AA0020211A508E0D8F800108B0701D50FA598
S31508020AB002E0490701D50EA501261146002408F1D0
S31508020AC0240704E000F042FA30323A55641C50EA30
S31508020AD00102F7D133462A4621464046BDE8F0418F
S31508020AE000F079BA000000002D0000002B0000007B
S31508020AF02000000030B4002100F124040CE002F0CA
S31508020B00070505F130054FEAD20242EA43726554F7
S31508020B1001F101014FEAD30352EA0305EFD1046852
S31508020B20002310A2250708D504F020040C4304D09C
S31508020B30C46901230CA2641EC46130BC00F04BBA1E
S31508020B4010B5044621461068FFF78FFE0246204676
S31508020B50BDE810400023CDE7D21D22F00701D1E9F6
S31508020B600023C7E70000000030000000F0B40F467B
S31508020B700168090502D5234C7C4402E0214C7C44D9
S31508020B800E34002100F124050BE002F00F064FEAAD
S31508020B901212A65D42EA03724FEA13136E5401F16A
S31508020BA0010152EA0306F0D122460468002324070B
S31508020BB004D5702F05D009B111320223F0BC00F01A
S31508020BC00ABA10320123F9E770B504460D462146E2
S31508020BD01068FFF74AFE024629462046BDE87040DD
S31508020BE00023C3E7D21D22F00703D3E90023BDE79A
S31508020BF00368126843F0200303600823C3610023D5
S31508020C00B4E70000B47C03002DE9F05F0446894688
S31508020C104FF0000ADFF878B1FB44C0F820A020465E
S31508020C20E1688847002875D0252806D0D4E901212D
S31508020C309047206A401C2062F1E700265F4620465C
S31508020C40E16888472028054608DB312D06D207EBDE
S31508020C50050010F8200C08B10643F0E7B00701D5E5
S31508020C6026F00406C4F81CA00027C4F818A02A2DEA
S31508020C7009D028462CF030FD38B304EB8708303DFE
S31508020C80C8F8185019E059F8041B204604EB8702E5
S31508020C909161E1688847012F054618D1E069002865
S31508020CA020DA26F020061DE0D8F8180000EB8000AE
S31508020CB005EB40003038C8F818002046E168884736
S31508020CC005462CF009FD0028EED1012F0AD02E2D5B
S31508020CD008D12046E16888477F1C0546022F46F060
S31508020CE02006C4DBA069002803DA404246F0010662
S31508020CF0A061F00701D026F010066C2D0BD0682DE6
S31508020D0009D04C2D39D06A2D35D0742D35D07A2D8F
S31508020D1033D016E038E0E1682F4620468847B842C5
S31508020D20054609D16C2F26D04FF48060E168064348
S31508020D3020468847054604E06C2F1AD04FF4807087
S31508020D4006430DB3A5F14100192802D8203546F409
S31508020D5000664A462946204626604E46FFF769F946
S31508020D6080B101280BD0F61D26F0070000F108090C
S31508020D7055E74020E4E78020D8E70020D6E706F1C9
S31508020D8004094CE7284651E7206ABDE8F09F0000AF
S31508020D903C7C030070B50646484231EA00000FD093
S31508020DA02A20741C0025307000F0C8F8034600207B
S31508020DB053F82520110F120109292BD957312AE098
S31508020DC0042913D004DC012908D0022904D109E038
S31508020DD008290FD0102911D0002070BD00F0AEF8F6
S31508020DE000680EE000F0AAF840680AE000F0A6F8EB
S31508020DF0806806E000F0A2F8C06802E000F09EF8FB
S31508020E00006928B120F0030050F8041C084470BD9C
S31508020E1048A070BD3031401C082804F8011BC9DB04
S31508020E206D1C052DC3DB00202070304670BD2DE9F0
S31508020E30F04709B14B0902D00020BDE8F08732B16C
S31508020E4013782A2B06D0BDE8F04700F025B8BDE88E
S31508020E50F0479FE7551C81460F464FF001080024CC
S31508020E600026314615F8010B392801D8303800E03A
S31508020E705738491C082940EA0616F3DB08FA04F033
S31508020E80384203D000F05AF840F82460641C052C56
S31508020E90E6DB39464846DAE72DE9F04106460C46CE
S31508020EA0154688070AD51146234878442EF0C0FD10
S31508020EB007003CD000F042F87F1C4760E0070AD0E2
S31508020EC029461D4878441A38AFF3008007002ED009
S31508020ED000F034F8076060070AD5294616487844B0
S31508020EE03438AFF30080070021D000F027F8876076
S31508020EF020070AD52946104878444E382EF082FD36
S31508020F00070014D000F01AF8C760E0060AD5294689
S31508020F10094878446838AFF30080050007D000F026
S31508020F200DF8056121463046BDE8F04132E7BDE8D5
S31508020F30F081000043000000229703000048704732
S31508020F40B069001000487047C469001030B5B0F1A6
S31508020F500A024FEA900E71F100034EEA817EB0EB67
S31508020F600E0061EB91014FEA101E4EEA017E10EB6C
S31508020F700E0041EB11114FEA102E4EEA016E10EBEC
S31508020F800E0041EB11214FEA104E4EEA014E10EBCC
S31508020F900E0041EB1141401841F100014FEAD00021
S31508020FA040EA41704FEAD10110EB80054FEA81040D
S31508020FB044EA907444EB01046D1944EB0404521B91
S31508020FC0A3414FF0000348BF0A3200D530BD401C8A
S31508020FD041F1000130BD2DE9F0470D46044692461F
S31508020FE0994600F124080168880604D5E06921F0CB
S31508020FF01001216000E00120A84202DDA0EB0507EE
S3150802100000E00027A16907EB050202EB0900A1EB44
S315080210100000A0612068C00602D42046FFF7F3FB51
S31508021020002608E0D4E901211AF806009047206A4A
S31508021030401C761C20624E45F4DB2068C0060AD5A1
S315080210402046FFF7E0FB06E0D4E90121302090476D
S31508021050206A401C2062381EA7F10107F4DC07E06B
S31508021060D4E9012118F805009047206A401C20623D
S31508021070281EA5F10105F3DC2046FFF7DBFB2068F5
S31508021080000602D50220BDE8F0870120FBE770477B
S315080210902DE9FF4F0C461E464FF0FF378BB0D2E9BB
S315080210A00001DDF860800A908A46C1F30A5505B93F
S315080210B03D46002108464FF00000BAF1000F00F441
S315080210C0400005DA00EB80004FF4400101EA5000C7
S315080210D04FEA9059B9F1010F00DDB9460A9850EA6C
S315080210E04A000FD044F61050A5F2FF3545432F1497
S315080210F0B8F1000F1FD07542291E1FDD4846C9F1F7
S3150802110000021CE0B8F1010F4FF0000001D1F243D2
S3150802111007E0302101E02154401CB042FBDB304697
S315080211200022002121540B99C1F80880C1E9002048
S315080211300FB0BDE8F08FBD1B6D1CDDE74A4600DA2D
S31508021140694206A800F0CAFB06AB07CB03AB07C386
S3150802115050460A9900F034FC8DE80700A0F50050C5
S315080211601F3800900398002D09DD42F21F014A46F6
S31508021170084403A90390684600F093FE08E0A0F528
S3150802118000504A461F3803A90390684600F09DFEA0
S315080211908DE807000004000C03D04FF0FF30410829
S315080211A000E01046B8F1000F03D00022009215465F
S315080211B01FE0751E06D4FFF7C9FE02F1300262551A
S315080211C06D1EF8D5B3460122084302D000227F1CC1
S315080211D004E02078302801D100227F1E002A0997D0
S315080211E086D01DE0112D07DAFFF7B0FE30326255C0
S315080211F06D1C50EA0102F5D108430FD10021681E81
S3150802120005E0235C625C6354491C2254401E8142F9
S31508021210F7DBAB46A81B401E099001E0009848B1CF
S31508021220002004F80B000B98099AC0F80880C0E958
S31508021230002B7DE711264FF0000859E72DE9F04FFC
S3150802124088460446D21D22F0070191B0D1E9000171
S31508021250CDE90A012BF0C9FB02460B98C00F01D053
S315080212602D2007E02068810701D52B2002E02021E6
S3150802127001EAC000032A099001D0072A05DB0346C2
S315080212804146204600F0EAFA0EE12068800601D5BA
S31508021290E06900E00620B8F1650F814606D0B8F18C
S315080212A0660F18D0B8F1670F72D132E00020B9F193
S315080212B0110F009001DB112301E009F101030AAACB
S315080212C001A90CA8FFF7E4FEDDE90C70002609F176
S315080212D00105834648E001204B4600904FF000473F
S315080212E00AAA01A90CA8FFF7D3FEDDE90C050E9997
S315080212F00026AB4619B909F1010100EB0105B9EB64
S31508021300050003D4C0F1FF3609F10105A5EB090072
S315080213102BE0B9F1010F01DA4FF001090020B9F10A
S31508021320110F0090484601DD112300E003460AAA80
S3150802133001A90CA8FFF7ACFEDDE90C704D460026A4
S315080213408346206800070AD4AB4500DA5D4601A841
S31508021350012D04DD411911F8011C302907D04F452A
S3150802136002DA17F1040F04DA0120824610E06D1E34
S31508021370EEE7002F02DCED1B3E4403E0781CA84290
S3150802138000DD0546A7EB060000F1010A4FF000470B
S315080213902068000703D4AA4501DB4FF0FF3A002173
S315080213A0B7F1004F0DF143088DF8431022D0022001
S315080213B02B23002F01DA7F422D230A22011EA0F1D8
S315080213C0010000DC4FB197FBF2F102FB117C0F46DC
S315080213D00CF1300C08F801CDF0E7A8F10100037012
S315080213E02168090501D5452100E06521A0F101081A
S315080213F000F8011C09980FA9A1EB080707F10707CE
S3150802140000B1012000EB050101EBEA70A16938443D
S31508021410A1EB0000A0F10100A0612068C00602D479
S315080214202046FFF7F0F9099830B1D4E9012190472F
S31508021430206A00F1010020622068C00620D52046F5
S31508021440FFF7E1F91CE0002E04DBB34502DD01A833
S31508021450805D00E03020D4E901219047206A761C9D
S31508021460401CBAF1010A20620AD1FFF767FDC0687B
S315080214700168405CD4E901219047206A401C206239
S31508021480281EA5F10105DEDC07E0D4E9012118F8DA
S31508021490010B9047206A401C2062381EA7F10107FB
S315080214A0F3DC2046FFF7C6F9022011B041E6000038
S315080214B02DE9F04F04460D46D21D22F0070089B0E9
S315080214C0D0E900924846174639462BF08EFA02466C
S315080214D0F80F01D02D2307E02068810701D52B23B9
S315080214E002E0202101EAC0038DF820300BB1012069
S315080214F000E00020032A824601D0072A04DB294697
S31508021500204600F0ABF941E12068800601D40D259A
S3150802151000E0E569C7F30A560D2D4ADA00214FEABB
S31508021520175B08464FF00000002F00F4400007DA68
S3150802153000EB80004FF4400100EBD07001EA600036
S315080215404FEAA05CBCF1010F01DD4FF0FF3CAB0096
S315080215500021182B06D30A46A3F118004FF0805132
S31508021560C14002E04FF48012DA400C33202B03D339
S31508021570203B09FA03F001E007FA03F0BCF1000F79
S315080215804FF0004801DD18B913E012D1404510D3D7
S3150802159019EB01095741BCF1000F05D1404503D1AA
S315080215A013469F4329EA0109BBEB175F01D006F1EF
S315080215B001062068000502D57C48784402E07B488B
S315080215C07844193808AB302203F80A20027C0AF15B
S315080215D00101002E0AF1020A5A54694602DC4FF04A
S315080215E0300201E04FF031024FF001088DF8002079
S315080215F002D0A6F2FF3603E059EA470200D06C4E43
S31508021600002D02DC2268120704D54FF002082E22AA
S315080216108DF80120C44600230BE0C7F303423F01BD
S31508021620825C5B1C6D1E01F80820052B08F1010877
S3150802163001DA002DF1DC00220CE000EB1973521CD2
S315080216401B786D1E082A01F8083008F101084FEACE
S31508021650091901DA002DF0DC2268920602D514E097
S31508021660A8F10108E04505DD01EB080212F8012C94
S31508021670302AF5D0B8F1000F07DD01EB080212F89F
S31508021680012C2E2A01D1A8F10108002D05DD3E22E2
S3150802169001F808206D1E08F10108407C002E01F8A9
S315080216A0080008F1010806DA2D2001F8080076423A
S315080216B008F1010804E02B2001F8080008F10108E6
S315080216C00A274FF47A739E420ADB96FBF3F000F17F
S315080216D0300203FB106601F8082008F1010801E050
S315080216E0642E0BDB642396FBF3F000F1300203FB56
S315080216F0106601F8082008F1010801E00A2E07DB46
S3150802170096FBF7F000F1300001F8080008F101082D
S3150802171096FBF7F007FB106000F1300001F80800AD
S31508021720A16908F1010808EB050202EB0A00A1EB20
S315080217300000A0612068C00602D42046FFF763F8BD
S31508021740216A08AE01EB0A00206204E0D4E901210D
S3150802175016F8010B9047BAF1010AF7D22068C006BB
S3150802176002D52046FFF74FF86E4609E016F8010B38
S315080217703E280FD0D4E901219047206A401C2062F6
S31508021780B8F10108F2D22046FFF754F809B0022050
S31508021790BDE8F08F206A2844206203E0D4E90121DB
S315080217A0302090476D1EEBD3F8E7000075740300EE
S315080217B002FCFFFF10B5436913B1AFF3008001E0E5
S315080217C0FFF75CF8012010BD126800F124010A70C7
S315080217D000224A700122EDE711684FF0FF32E9E76D
S315080217E010B5436913B1AFF3008001E0FFF7E8F8DB
S315080217F0012010BD126800F1240182840022C284ED
S315080218000122EDE711684FF0FF32E9E770B50546A8
S315080218100C46164600F01AF8036893F801010128E7
S3150802182006D0FF2C0FD8185D68B101202C7070BD48
S31508021830D3F807013246214603442846BDE87040DC
S3150802184003F2071318474FF0FF3070BD10B5FFF7C4
S3150802185075FB001D10BD00BFD9E102002DE9F0415C
S3150802186004461F4603260168072A01F4006004DBC2
S3150802187008B116A505E016A503E008B115A500E00E
S3150802188015A521F010002060A069C01EA0610FB145
S31508021890401EA0612046FEF7B6FF4FB1D4E90121EA
S315080218A038469047206A401C2062C01C206206E027
S315080218B0206AFAE7D4E9012115F8010B9047761E4A
S315080218C0F8D22046FEF7B6FFBDE8F0814E414E003B
S315080218D06E616E00494E4600696E66002DE9F04754
S315080218E0814616468AB035487844D0E9002380688E
S315080218F00092CDE90130314878440C38D0E9022308
S31508021900006903924FF03702CDE9043041F69B3065
S31508021910014491FBF2F0A0F1800502FB10141B3C76
S3150802192002D56442012000E00020DFF890A080463C
S315080219300027FA44AAF1C60A0DE0E00709D03246A2
S31508021940684607EB47010AEB810100F0BEFA8DE80B
S31508021950070064107F1C002CEFD1184F7F44B43F58
S3150802196017E0E80713D007EB04100DF1180A90E800
S315080219700E00AAE80E00C068F04201D19819089034
S31508021980324606A903A800F0A0FA03AB07C36D10F6
S31508021990641C002DE5D132466946B8F1000F03A84A
S315080219A002D000F07EFA01E000F08FFAC9E90001E0
S315080219B0C9F808200AB0BDE8F0870000D87103000C
S315080219C05FEA400C08BF91F0000F4FEA8C234FEAFA
S315080219D0C12243EA51514FEA1C5018BF00F5F040A4
S315080219E04FEA300018BF41F000415FEA6C5C00F034
S315080219F02980BCF1FF3F08BF40F080407047130CB6
S31508021A0006BF12044FF0100C4FF0000C130E04BF61
S31508021A1012020CF1080C130F04BF12010CF1040C8C
S31508021A20930F04BF92000CF1020CD30F04BF5200AD
S31508021A300CF1010C11464FF00002A0F11F00A0EBB9
S31508021A400C00704711F0004F08BF704731F0004193
S31508021A503FF4D5AF0B0C06BF09044FF0100C4FF03C
S31508021A60000C0B0E04BF09020CF1080C0B0F04BF85
S31508021A7009010CF1040C8B0F04BF89000CF1020C4E
S31508021A80CB0F04BF49000CF1010CCCF12003A0EBEB
S31508021A900C0022FA03F302FA0CF241EA030100F1FE
S31508021AA00100704720F07F4C80EA030023F07F474D
S31508021AB0ACEB070303F57C5300F0004003F1FF0388
S31508021AC02DE980494FEA154B09B44FEA144325EA32
S31508021AD00B4E24EA03480FF2042606EB132749089D
S31508021AE03E785FEA320203FB0667C7F5000707FB83
S31508021AF006F64FEA54374FEAD64606F1020607FBC0
S31508021B00066CCCF1005C4FEA1C472CEA074C07FB33
S31508021B1006F40CFB06F504EB15464FEA961634BF97
S31508021B2000204FF000404FEAD13706FB07FC4FEA88
S31508021B301C4C0CFB0BF7D21B03FB0CF761EB0701E2
S31508021B400CFB0EF7B0EB074072EB17420CFB08F7DB
S31508021B5034BFA2EB0742B2EB074261EB17414FEAE9
S31508021B600C444FEA910706FB07FC4FEA1C4C0CFB98
S31508021B700BF7B0EBC74072EB573203FB0CF734BFD7
S31508021B80A2EBC742B2EBC74261EB57310CFB0EF729
S31508021B90B0EBC70072EB57720CFB08F734BFA2EB27
S31508021BA0C702B2EBC70261EB5771039F4FEA816125
S31508021BB041EA921104EBCC044FEAD1374FEA82622A
S31508021BC006FB07FC42EA90124FEA80604FEA1C4C79
S31508021BD00CFB0BF7D21B03FB0CF761EB07010CFBA3
S31508021BE00EF7B0EB074072EB17420CFB08F734BF4F
S31508021BF0A2EB0742B2EB074261EB17414FEA8C555B
S31508021C004FEA910704EB9C2406FB07FC4FEA1C4C9F
S31508021C100CFB0BF7B0EBC74072EB573203FB0CF722
S31508021C2034BFA2EBC742B2EBC74261EB57310CFB9A
S31508021C300EF7B0EBC70072EB57720CFB08F734BF0E
S31508021C40A2EBC702B2EBC70261EB577115EB4C2543
S31508021C504FEA816141EA92114FEA82624FEAD1372D
S31508021C6042EA901206FB07FC44F100044FEA806040
S31508021C704FEA1C4C0CFB0BF7D21B03FB0CF761EB70
S31508021C8007010CFB0EF7B0EB074072EB17420CFB91
S31508021C9008F734BFA2EB0742B2EB074261EB1741E2
S31508021CA015EB1C154FEA813141EA92414FEA82321D
S31508021CB042EA90424FEA80304FEA0C7644F1000439
S31508021CC048EA03434EEA0B484FF0000EB2EB080C03
S31508021CD071EB030724BF624639464EEB0E0E4FF0F0
S31508021CE0000B0018524149414BEB0B0BB2EB080CA7
S31508021CF071EB03077BF1000B24BF624639464EEBB4
S31508021D000E0E4FF0000B0018524149414BEB0B0BDC
S31508021D10B2EB080C71EB03077BF1000B24BF62469A
S31508021D2039464EEB0E0E51EA020718BF46F0010677
S31508021D3016EB0E7655F1000254F1000103D5BDE803
S31508021D408901BDE80088BDE88901BDE80048B619E1
S31508021D50524141EB0101A3F10103704780807F7E66
S31508021D607D7C7B7A79787776767574737271717001
S31508021D706F6E6E6D6C6C6B6A6A69686867666665B3
S31508021D806464636362616160605F5F5E5E5D5D5C41
S31508021D905C5B5B5A5A5959585857575656555555B2
S31508021DA05454535352525251515050504F4F4F4E12
S31508021DB04E4D4D4D4C4C4C4B4B4B4A4A4A49494960
S31508021DC048484847474747464646454545444444A2
S31508021DD0444343434342424242414141002B26D4B3
S31508021DE0770021D01CB54FEA370703B44FF010002D
S31508021DF04FF010014FF000000FBCBDE810400BF188
S31508021E00010BBBF1010F08BF5FEA170722BF12F1E8
S31508021E10010211F101014FF0004143F1000300F004
S31508021E20004043EA00007047F9D35708DAE746EA62
S31508021E30064613F1400F4FEA16461FDD13F1200F2F
S31508021E40DFBF16430A46002120335B42C8D0C3F1DE
S31508021E50200746EA064602FA07F74FEA164646EA10
S31508021E600706C3F1200722FA03F201FA07F721FA55
S31508021E7003F14FF0000342EA0702B1E746EA020617
S31508021E8046EA06464FEA164646EA0106BCBF46EA4F
S31508021E900646360C4FF000034FF000024FF00001E1
S31508021EA09EE72DE9C048934630B491E8380007C842
S31508021EB031EA400C48BF34EA430C03D5FFF7F2FD7A
S31508021EC0FFF78CFFF0BCBDE800882DE9C0489346B1
S31508021ED030B491E8380007C810F0804F08BF13F0F5
S31508021EE0804F03D100F005F8FFF778FFF0BCBDE894
S31508021EF0008820F07F4780EA030023F07F4C07EB37
S31508021F000C03A3F57C5300F00040A3F1FE0392F004
S31508021F10000F00F0B38095F0000F00F077802DE9EE
S31508021F2001494FEA11404FEA144621EA004800FBEC
S31508021F3006FC24EA064708FB06F607FB08F800FB38
S31508021F4007F718EB06484CEB164C4FEA124B18EB00
S31508021F5007484FEA15464CEB174022EA0B4E0BFB95
S31508021F6006FC25EA06470EFB06F607FB0EFE0BFBEA
S31508021F7007F71EEB064E4CEB164C4FF000061EEB0F
S31508021F80074E4CEB174B18EB0B0840F1000018EB09
S31508021F900E0B58EB000840F100008F1A4FF00001B3
S31508021FA03CBFC943661B14BFB5EB040C00213CBFFA
S31508021FB0C943F61B4FEA17444EEA8E0E27EA044532
S31508021FC04FEA1C4704FB07622CEA074C05FB07F796
S31508021FD00CFB05F604FB0CFC16EB074642EB174214
S31508021FE016EB0C4642EB1C421BEB060658EB0202AA
S31508021FF0414146EA9E0601D5BDE80189B619524114
S3150802200041EB0101A3F10103BDE801894FEA144539
S315080220104FEA114724EA054621EA074C05FB07F46D
S3150802202006FB07F70CFB06F105FB0CFC11EB074157
S3150802203044EB17444FEA124711EB0C4144EB1C449C
S3150802204022EA074C05FB07F206FB07F70CFB06F626
S3150802205005FB0CFC16EB074642EB174216EB0C4641
S3150802206042EB1C456A1854F1000148BF7047B6197D
S31508022070524141EB0101A3F10103704795F0000FAC
S3150802208037D04FEA11424FEA144721EA024624EAB8
S31508022090074C02FB07F106FB07F70CFB06F402FBEB
S315080220A00CFC14EB074441EB17414FEA154714EBB6
S315080220B00C4441EB1C4125EA074C02FB07F506FBDB
S315080220C007F70CFB06F602FB0CFC16EB074645EB7C
S315080220D0174516EB0C4645EB1C42121951F1000145
S315080220E048BF7047B619524141EB0101A3F10103FA
S315080220F070474FEA14454FEA114724EA054621EA92
S31508022100074C05FB07F106FB07F70CFB06F24FF037
S31508022110000605FB0CFC12EB074241EB174112EBDA
S315080221200C4251EB1C4148BF7047921841EB010122
S31508022130A3F1010370470000814208BF7047042AD1
S3150802214006D950F8043B121F41F8043B042AF8D872
S31508022150002A08BF704710F8013B01F8013B521EDE
S31508022160F9D170470022042904D9091F40F8042B23
S315080221700429FAD8002908BF704700F8012B491E1E
S31508022180FBD1704710B507480749084AFFF7D4FF3D
S3150802219007480849084AFFF7CFFFBDE81040074835
S315080221A00749DFE778D3070800000020000000008F
S315080221B0D4D4070800000010F8060000F80600103C
S315080221C0C8630000FDF72CBF3B4A0020116841F4A2
S315080221D080311160116800F1010011F4003F02D14B
S315080221E0B0F5A06FF6D1106810F4003F08BF70472B
S315080221F03248016841F0805101603148016841F472
S31508022200804101602F4801680160016841F400417C
S315080222100160016841F4A0510160031F2A4919604F
S31508022220116841F080711160116811F0007FFBD0CE
S31508022230264A40F205611160016821F00301016036
S31508022240016841F002010160016801F00C010829E8
S31508022250FAD1704772B601211D4841600821816092
S315080222601C48016821F4027101601B48016841F4A7
S31508022270FE6101601048016841F001010160114ADE
S3150802228000211160026822F4102222F08072026094
S31508022290031D124A1A60026822F48022026010485C
S315080222A0016091E710B5FFF7D5FF02F083F9BDE8A3
S315080222B01040FFF767BF000000380240403802406E
S315080222C0007000400838024019544007003C02409A
S315080222D0002004E014ED00E0FCED00E010300024DC
S315080222E00C380240EFF3108272B60260704701683A
S315080222F081F310887047EFF30581006809B14FF042
S3150802230001007047016881F31088704772B67047FA
S315080223100168EFF3108281F3108882F31088704700
S31508022320EFF31080EFF3058180F0010009B14FF059
S3150802233000007047EFF3108072B680F00100704714
S31508022340EFF3108062B680F001007047EFF3108158
S3150802235072B601607047016881F310887047000001
S31508022360704770471B49088810F0010F1A4809D0B0
S315080223704FF6FE720A80D0E902120B1C42F10101E5
S31508022380C0E9023115490968D0E9023C41EA03006D
S315080223906146704730B583B0044600216846FFF7A8
S315080223A0A1FFFFF7DFFF05462046FFF7DAFF0328FE
S315080223B094BF0024C41EFFF7D5FF401BA042FAD9DA
S315080223C06846FFF794FF03B030BDA8214843401F73
S315080223D000F078B9100C004020000010240C0040D0
S315080223E080684068704780688068704710B584B016
S315080223F06FF003005F496844884228BF5E4A03D3E8
S3150802240040F804298842FBD25D4C5C4860605D480E
S31508022410A06000F0C1FD5C485C490844A168084414
S31508022420A06003F071FD206001F011F80023022478
S315080224301A4619461B20009404F0A0FC00231A46EB
S3150802244019462B20009404F099FC00231A461946D3
S315080224500420009404F092FC00231A461946082028
S31508022460009404F08BFC00231A46194610200094A7
S3150802247004F084FC00231A4619461120009404F03D
S315080224807DFC00231A4619463220009404F076FC95
S3150802249000231A4619461C20009404F06FFC0121F9
S315080224A0162004F06AFE0121172004F066FE0121B7
S315080224B0182004F062FE0121192004F05EFE0121B3
S315080224C0262004F05AFE0121272004F056FE012197
S315080224D0282004F052FE0121292004F04EFE02F0C3
S315080224E047FF01F055F80020034600900222042116
S315080224F027A000F065FC2CA32EA2314931A000F0DA
S315080225005FFC374937A000F05BFC01A902A800F07E
S3150802251037FDDDE90110FEF79EF839A02CF0F4F834
S31508022520274938A02CF0F0F838A136A02CF0ECF8A0
S3150802253020A139A02CF0E8F81BA137A02CF0E4F86A
S3150802254001214EF6602004F008FC0121022004F065
S31508022550F5FD0121084604F0FEFB03F001FC31A05B
S315080225602CF0D2F838A02BF07BFE06F065FC04B0FE
S3150802257010BD000000E000100DF0ADBA0000020820
S315080225800000001078D3050000000000F8060000DD
S315080225902E4E65744D46207625642E25642E2564B6
S315080225A02E25640D0A00000030313A34333A3039A8
S315080225B0000000004A616E20323620323031330084
S315080225C07014050825732C204275696C64204461D1
S315080225D074653A0D0A0925732025730D0A00000051
S315080225E00E45060041524D20436F6D70696C657247
S315080225F02076657273696F6E2025640D0A000000E5
S315080226000C000000252D3135730D0A004275696CE0
S315080226106420446174653A002020252D3133730DF8
S315080226200A0000000C6D61696E206578697465643C
S3150802263021213F3F3F2E202048616C74696E672036
S315080226404350550D0A0000006D61696E2065786970
S3150802265074656421213F3F3F2E202048616C7469CE
S315080226606E67204350550D0A0000000010B503F0AE
S31508022670BDF9BDE8104006F0DFBB000004B02DE945
S31508022680FF0F6846EFF30581FFF7F0BF81B000B58B
S315080226902DE9FF5F6846EFF30381C163AFF300805C
S315080226A010B582B0044600216846FFF71BFE0021DA
S315080226B0204603F09BF906F0BFFB6846FFF717FEB4
S315080226C002B010BD001FFDDCF7460000034951F8B1
S315080226D02020521E41F820207047000038070010BB
S315080226E0034951F820000028CCBF0120002070477A
S315080226F038070010034951F82020521C41F82020BF
S31508022700704700003807001030B40024002A17DD8D
S315080227100B5D4FF0080CDD0945EA4000C0B210F027
S31508022720800F18BF80F009005B061B0EACF1010C86
S31508022730BCF1000FEFDC641C00F07F00A242E7DC6C
S3150802274007214006000E10F0800F18BF80F009001E
S31508022750491E0029F5DC30BC00F07F0070470000F6
S315080227602DE9F04F8046D548D5499BB0081AC01CBA
S3150802277016904FEA186017901FFA88F04FF0000B70
S3150802278018904FF0000A0FF0D3F800230222042112
S31508022790CCA0CDF800B029F015FE09F07DFFD2A035
S315080227A029F010FED44CC4F8008018F001FE002867
S315080227B0C0F23C81D1A029F005FEC8F3074020B13A
S315080227C0D248016841F000410160D04818F0EAFD9C
S315080227D00028C0F22B81CEA029F0F4FD10F0CEFE1F
S315080227E001202071DFF81093CEA029F0EBFD169890
S315080227F0B24920F00307B24D0C4601AA684610F00A
S315080228008FFA00281CBF0098002808D0C268806882
S31508022810816810468847006810F0020F0FD0002022
S3150802282000283EDB2A462146C2A029F0CBFD291BF9
S315080228300022204602F016FAC649086027E00C2153
S31508022840384609F01CFF060008BF4FF07A40E7D069
S31508022850DDE900C10346DCF80C00DCF808C03A469C
S31508022860DCF80CC0E04700280EBF4FF0774034462C
S31508022870F519D5D0D3E76A462146484629F0CAFC57
S3150802288000280EDB606E2044C01C20F0030404F10D
S315080228907C00A84204D2204629F0ECFF0028EAD19F
S315080228A000200028C0F2BE80ABA029F08BFD502183
S315080228B00AA816F0F8FC18B9B0A029F083FD6DE055
S315080228C01398C26880688168104688470AAC7C26D5
S315080228D0B4E80E108DE80E100EACB4E80E1004AC77
S315080228E0A4E80E10DDE91212CDE908120068CDF847
S315080228F050B0C0F340044CB90121304609F0E4FE59
S315080229001490002845D03146FDF7A5FE7742324697
S3150802291014A9684616F02BFE80B3149D284629F0A2
S3150802292071FF58B3686EC01C20F003052CB90C2140
S31508022930284609F0A4FE1590F8B1012239466846E0
S3150802294016F06CFE2A4615A9684616F010FEA8B1BE
S31508022950159D284629F08EFF58B195A029F032FD1B
S3150802296019AA2946484629F055FC002807DA0CB167
S315080229700FE074B9159809F095FE07E005E0199875
S31508022980016941F008010161C1E714B9149809F017
S3150802299089FE0AA816F0BAFC002891D18BA029F064
S315080229A011FD8E4815F032FC00283BDB8C481CF0E2
S315080229B0A7FF8A4816F0DAF8002833DB89A029F03F
S315080229C001FD0021162004F0D8FB0021172004F08F
S315080229D0D4FB0021182004F0D0FB0021192004F0B2
S315080229E0CCFB0021262004F0C8FB0021272004F096
S315080229F0C4FB0021282004F0C0FB0021292004F092
S31508022A00BCFB01212F2004F0B8FB00212E2002F086
S31508022A10E9FA00213D48189A1AF0FCF974A029F03F
S31508022A20D1FC03E0014674A029F0CCFC374C20689F
S31508022A3010F0005F16D1206820F4406020602068FC
S31508022A4040F400602060012000906F4800231A4677
S31508022A5000680921006809F000FE1798002818BFC7
S31508022A6011F0D0F9206810F0005F20D0A06810F0AD
S31508022A70010F1AD0052131EA00000CBF01200020FF
S31508022A8060F317480020FFF755FC55481DF0E3FA96
S31508022A9018F09EFC184880F804B001F029FA00F0F4
S31508022AA077FD0020FFF74CFC6BE606F009FABAF14F
S31508022AB0000F7FF466AE1BB0BDE8F08F0CA70508C1
S31508022AC078D307080D0A54696E79434C5220284276
S31508022AD075696C642025642E25642E25642E25646A
S31508022AE0290D0A0D0A0000005374617274696E6733
S31508022AF02E2E2E0D0A000000140000104372656186
S31508022B007465642045452E0D0A000000200D00104C
S31508022B105374617274656420486172647761726580
S31508022B202E0D0A004372656174652054532E0D0AF0
S31508022B3000000000204C6F6164696E67207374613F
S31508022B4072742061742025782C20656E642025789D
S31508022B500D0A0000940000104C6F6164696E6720CC
S31508022B604465706C6F796D656E7420417373656D1B
S31508022B70626C6965732E0D0A000000004552524FB9
S31508022B80523A20436F756C64206E6F742066696EC4
S31508022B90642064657669636520666F7220444550D1
S31508022BA04C4F594D454E542075736167650D0A00A1
S31508022BB0417474616368696E67206465706C6F79C5
S31508022BC065642066696C652E0D0A00005265736F8E
S31508022BD06C76696E672E0D0A00000000541000100C
S31508022BE0D813001052656164792E0D0A00000000A0
S31508022BF0446F6E652E0D0A004572726F723A202571
S31508022C003038780D0A0000008800001030B583B00D
S31508022C10044600216846FFF765FB0648016801EA93
S31508022C2004050168A14301606846FFF760FB03B02B
S31508022C30284630BD7000001010B582B00446002147
S31508022C406846FFF74FFB074A116841EA040010601D
S31508022C50516800291CBF906888476846FFF747FBFA
S31508022C6002B010BD700000102DE9F04389B00500CE
S31508022C70109E88461F467CD0D8F80040002C11BF0B
S31508022C80002A002009B0BDE8F08304F1B000C8F8B4
S31508022C900000A2F10109B0212046FDF7FEFC002F33
S31508022CA008BF2F462760287860606878A060688821
S31508022CB0E060002E18BF306814D0C4F89800606827
S31508022CC01B2856D2DFE800F05517171717171717DC
S31508022CD0171717171717171C3741414537555555F3
S31508022CE055174F00294602A817F09CFD0028A8BFD1
S31508022CF00398E4DBE1E7D5E90101C4E9040138E018
S31508022D006D688DB12846C4F8945000F085F9C4F868
S31508022D1090007F2828BF7F2003462A46802104F197
S31508022D20100000F07BFB24E00020C4F89400C4F8ED
S31508022D30900020741DE0686800234A4641460096C2
S31508022D40FFF792FF09B0BDE8F0836868C4F89800F7
S31508022D500FE0E868C4F89C00E888C4F8A000A868F0
S31508022D60C4F8A40005E06868C4F8A800A868C4F80E
S31508022D70AC0009B00120BDE8F08306F025BA0120AF
S31508022D8070474FF0FF3070474FF0FF30704708F03A
S31508022D9061BE10B5002304464022194601F038FBED
S31508022DA0002340228021204601F032FB012084F8CC
S31508022DB0CE00D4F82815A07849688847002010BDA7
S31508022DC00FB410B503A9029800F086F810BC5DF896
S31508022DD014FBFF2100F0A0B870B584B00E4600249B
S31508022DE00546214602A8FFF77DFA0021284604F087
S31508022DF0C4F9052006F01EF8012E19D0002128462E
S31508022E0002F04EFC462006F015F80121284604F089
S31508022E10B4F9052006F00EF802A8FFF773FA002C9B
S31508022E2018BF012402A8FFF762FA04B0204670BD53
S31508022E3002200346002200901146284603F09EFF10
S31508022E40052005F0F7FF284602F000FCC4B2372039
S31508022E50D9E706F0E1B9A0F1610119299CBF20382A
S31508022E6080B270474FF0FF3070474FF0FF3070471F
S31508022E704FF0FF3070474FF0FF3070474FF0FF308A
S31508022E80704708F08FBE08F03BBF10B50446D0F86D
S31508022E90280500698047032084F8CE00002010BD6B
S31508022EA00FB410B504AA039900F0BEF810BC5DF879
S31508022EB014FB10F8012B412A02D35A2AD8BF203212
S31508022EC011F8013B412B02D35A2BD8BF20330AB142
S31508022ED09A42EED0D01A7047034603480A46194664
S31508022EE0406900F0A1B8000030000010094B03EB5E
S31508022EF0C0034FF0000032B11A5C0A54401CC0B23B
S31508022F000828F9D370470A5C1A54401CC0B208282C
S31508022F10F9D37047006700102DE9F04100260746ED
S31508022F200D46344605F001013846FFF755FFA04025
S31508022F303043C6B2601C6D10C4B2082CF2D33046B8
S31508022F40BDE8F08110B50C46FFF7E6FFA0420CBFBC
S31508022F500120002010BD000010B582B004460021F1
S31508022F606846FFF7BFF905490A6822EA04000860BD
S31508022F706846FFF7BCF902B010BD000070000010E9
S31508022F80034A02600348801A001D08607047000061
S31508022F9000000020F8FD012010B52DF0E2FF0448DC
S31508022FA002A10068BDE81040FDF782B900000000E2
S31508022FB0C085050800207047002070474FF0FF3093
S31508022FC0704710B5042180F8CE10D0F82805C068DD
S31508022FD08047002010BD07F0B3BA0FB410B505AB91
S31508022FE0049A00F032FA10BC5DF814FB70B50500BD
S31508022FF00B4614461CBF002C002B05D0104600F0C9
S315080230000BF8401C984201D9012070BD214628467A
S31508023010FDF7B4F9002070BD014611F8012B002A0C
S31508023020FBD1081A401E704770B51346ADF5007DF0
S3150802303004460A464FF40071684600F006FA04F49C
S315080230407F410546B1F5407F0FD006DCB1F5807F9A
S3150802305018BFB1F5007F1FD107E06E46B1F5A06F24
S3150802306011D0B1F5C06F17D105E002466946204670
S3150802307001F029FD10E00A48016869B1002070557F
S315080230803046884708E00024002D05DD305D03F050
S3150802309016FB641CA542F9DC0DF5007D284670BDB9
S315080230A00C000010094B0A4A1968491C82FB01C226
S315080230B04FEAA20CACEBE272524202EB820201EB3D
S315080230C04201044A196042F8210070471C030010A5
S315080230D0676666661866001038B50446002104F06D
S315080230E04CF84FF4167005F0A5FE02210B46002295
S315080230F000911146204603F041FE412005F09AFE52
S31508023100204602F0A3FAC4B24FF4BA7005F092FE52
S31508023110002C0CBF0120002038BD06207047000095
S315080231200F4910B50A6812F4807F0FD10A6842F473
S3150802313080720A600B490022C1F80423CA624A60F7
S3150802314001228A60084ACA60084A0A6101F09DFE9D
S3150802315000220423114601F0AFFE012010BD000033
S315080231604438024000200140922449009224491220
S3150802317030B59FB004460D4600214348CDE900010B
S315080231801AA8694616F0F4FD0EA9204602F0FAF9C5
S31508023190002871DB03A9284602F0F4F900286BDB44
S315080231A09DF8100070B19DF83E00002808BF4FF048
S315080231B0224061D000222146684613F057F80028BB
S315080231C05ADB58E02946684613F0E6F8002853DB2E
S315080231D09DF83C0003A9A8B19DF8120028B90C3144
S315080231E0684612F083FD002846DBBDF80200012876
S315080231F018BFFCF76BFFDDE90001029AA260C4E979
S31508023200000138E09DF80000102808D1019830B175
S315080232100278122A03D1407810F0100F03D02078D2
S31508023220102822D112E02078102808D1606830B11F
S315080232300278122A03D1407810F0100F15D00C31FB
S31508023240684612F053FD002816DB0EE0606860B18E
S315080232500278122A09D1407810F0100F05D10C31E4
S31508023260684612F00DFF002806DB6946204613F071
S3150802327053FA002800DB002004461AA816F09EFD21
S315080232801FB0204630BD0000100001007047000044
S3150802329010B542694FF4B473526892FBF3FC03FB10
S315080232A01C220A4B83FB0232A2EBE272002AB8BF47
S315080232B03C32074B002903EB820214BFB2F9021013
S315080232C0B2F9001014F0F2F9002010BDABAAAA2A2E
S315080232D0801405087047000070B5084E002430684F
S315080232E000288CBF064D70BD05EBC4004068006817
S315080232F080473068641C8442F6D370BD7C14050886
S31508023300440600100020704740F2812070470020D2
S31508023310704700207047002070474FF0FF30704713
S315080233204FF0FF307047704707F02CB907F07CB9A9
S315080233302DE9F04105000E46904601D0072E01DB25
S31508023340FCF7C4FE05EB8604206908B1E06B08B1F8
S31508023350FCF7BCFE2369186800F1010CBCF1080FE2
S3150802336008BF4FF0000C01219A68002A18BF0027EF
S315080233700BD15A68624508BF996000EB001003EB4F
S31508023380800000F10C07C3F800C02069B1408068CC
S31508023390C8F800006879FFF71EFE3846BDE8F081D6
S315080233A070B504000D46164601D0072D01DBFCF761
S315080233B08DFE04EB8504206900281ABFE06B0028FD
S315080233C0FCF784FEA6B100202169D1E900329342B6
S315080233D002BF8B68002B70BD531C082B08BF002345
S315080233E0C1E9013002EB021001EB80000C3070BD1E
S315080233F02069D0E900218A4207BF8268002A01EBC8
S31508023400011100EB810008BF0020EFD170BD002832
S3150802341012BF002901207047FCF7D4BF10B59446A5
S315080234201A46002819BFBCF1000F0029012010BD59
S31508023430541C00238C4282BF0370012010BD8354A2
S315080234406146FDF751F9002010BDFCF717BF10B50C
S3150802345001F00AFE012010BD11210160012070470A
S315080234602DE9FF4F4FF0000487B05FEA00091F46B7
S315080234702646A046059412BF002F0BB0BDE8F08F72
S31508023480404800680168002908BF0020A8B10568FD
S3150802349029001ABF2A68002A0025C26ABA420AD136
S315080234A04268002A18BF1160002918BF4A600460E2
S315080234B044602CF0A9F82800E9D1DFF8CCB0002541
S315080234C0DBF80000002888BFDFF8C0A016D95AF832
S315080234D0350000281CBF826A002A0AD005A9384688
S315080234E0904730B10AEBC5005AF83560D0F8048027
S315080234F004E0DBF800006D1C8542E8D3002E04BF09
S31508023500012005904FF0000A059800289CBF0BB0D1
S31508023510BDE8F08F34202CF079F8050004BF0BB013
S31508023520BDE8F08F2C606C60AC60EC602C616C615D
S31508023530AC61EC612C626C62AC62EC622C63301C8E
S3150802354018BF0120CDF80080CDE903A0CDE90167B7
S31508023550DDE908234946284616F0D6FE68B12B4609
S3150802356000220121032000F08DFD05980AF1010AC7
S315080235708245CFD30BB0BDE8F08F28462CF044F82D
S31508023580F3E70000F80800107C140508440600104A
S3150802359000B5264883B0007904281CBF24A02AF067
S315080235A05FFE13F02FFC0DF067FF002001900090DC
S315080235B0694601A801F06CFADDE9001002F0D0FEB6
S315080235C000F0E6FA00F0A4FE01F0C2FC01F030F8C1
S315080235D00020FEF7B5FE0FF0CBFA03F0C3FB0FF09F
S315080235E00BFBFFF779FE16F0C9FDFFF773FE16F01F
S315080235F00DFE04F08BFD00F032F804F0D5FA00F067
S3150802360029F801F013F802F009F800F03AFD00F083
S31508023610CFFF01F03BFA01F01DFF01F092FA00F02C
S315080236201BF803B05DF804EB03F078BB00C0000892
S31508023630436F6E66696775726174696F6E20766527
S315080236407273696F6E20213D2076657273696F6E9B
S315080236500A00000005F058BD4FF04A4070470120A5
S3150802366070470000082824BF002070472DE9F003A0
S315080236704649474B84250A5C185C583303EB820398
S31508023680183153F804CC434B01EB820103EB820356
S3150802369051F8041C53F8043C3F4E4FF0FF374FF0E5
S315080236A00108B1F1804F1CBFA1F18044B4F58064D2
S315080236B017D0A1F18044B4F500641CBFA1F180447F
S315080236C0B4F540640DD0A1F18044B4F5C0541FBFCF
S315080236D0A1F18044B4F5E054A1F18044B4F5005454
S315080236E013D12E4CD4F8009019EA030F30D1D4F82E
S315080236F0009049EA030323600D80BCFBF6F307EB4F
S3150802370043030B85A1F8148022E0254CD4F80090D7
S3150802371019EA030F1CD1D4F8009049EA030323607F
S315080237200D80BCFBF6F307EB43030B85A1F8148067
S31508023730A1F18043B3F580331CBFA1F18043B3F5F1
S31508023740823305D1B1F8443043F40043A1F844303A
S315080237500023022A18BF052A01EB80020CBF536315
S315080237609386682310F0010F18BF4FF4D04301F176
S31508023770180210F0020F18BF01F11C021088184334
S315080237801080BDE8F003012070470000107C050890
S31508023790187C0508A87C050840420F0040380240FC
S315080237A044380240002808BF704730B583B0044643
S315080237B00D4600216846FEF795FD00222946204659
S315080237C003F016FF6846FEF792FD03B030BD00000F
S315080237D010B504460120FEF78DFF0220FEF78AFF88
S315080237E0104850F82430ABB10F4924F00300405872
S315080237F0A107090FC8400D4900F00F0051F824200F
S315080238000B4901EB8021096944EA0010E14001F005
S31508023810010198470220FEF759FFBDE81040012032
S31508023820FEF754BF6008001008380140A0080010CF
S31508023830000002402DE9F04784B007000C46904686
S315080238404FF0000638D03D7844F480300090D8F81E
S3150802385000000190D8F804000290A54208BF01268C
S3150802386023D0192C12D0102C16D0DFF86CA005EB39
S3150802387085095AF8290010F4003F08BFFCF726FC10
S315080238800AEB89004079042816D119E0102D04BFE5
S315080238907868002805D106E00198002808BF192D86
S315080238A001D0002600E0012636B13C70D8F80000A7
S315080238B07860D8F80400B86004B03046BDE8F087EE
S315080238C004EB84000AEB8000407904283CBF2C46AE
S315080238D00126F1D2E9E70000705B0508CA88012AC9
S315080238E005D190F8CE20022A03D0032A05D001F08A
S315080238F072B90122034902F053BC012200F1CC013C
S3150802390002F04EBC2C02001090F8CE20022A18BFF4
S31508023910032A01D001F05FB9D0F8D0200449002A61
S3150802392014BF032201228A600122024902F038BC2E
S31508023930200200102802001070B5044648880A467C
S31508023940224DC1B20129297005D894F8CE00022861
S3150802395007D0032813D02046BDE87040114601F06F
S315080239603AB969B384F8CC10032084F8CE0020460D
S3150802397000F0BCFB2046BDE8704003F08ABB91B15B
S3150802398094F8CC0088421BD00146204600F0A7FBDB
S31508023990297884F8CC10204600F0A8FB2046BDE81A
S315080239A0704003F076BB022084F8CE0084F8CC106F
S315080239B0204600F094FB2046BDE8704003F069BB40
S315080239C02046BDE8704003F064BB000020020010E8
S315080239D006F030BA30B4C0680024002804BF30BCF0
S315080239E07047438803EB000C0378012B18BF022BA0
S315080239F006D0032B09D0FF2B10D030BC002070470D
S31508023A008B4204BF30BC70471AE0032918D1558887
S31508023A104378EDB2AB4213D130BC704703791578BF
S31508023A20AB420DD143795578AB4209D1C388558843
S31508023A30AB4205D103899588AB4204BF30BC7047B7
S31508023A40002C08BF6046CCD030BC704706F012BACC
S31508023A5006F0B0BA40F674610160012070470FB4EF
S31508023A6010B505AB049A00F097F910BC5DF814FB83
S31508023A7040B101280CD02A200860142010601520B5
S31508023A801860704705200860062010600720F7E7CF
S31508023A901D2008601E2010601F2018607047000055
S31508023AA000487047007A030A0A21A0FB0101704701
S31508023AB010B40A22A0FB023401FB02414FF0000CAB
S31508023AC000FB0C1110BC18467047B0F90000B1F99A
S31508023AD00010401A704700207047082070474FF0C0
S31508023AE0FF3070474FF0FF30704711F07F0C0CEB38
S31508023AF0CC0110B500EB810101F1D4014FF00104AC
S31508023B004C7081F800C0CA604FF00002C1E9043265
S31508023B1003D002F054FB002010BD03F05FF8FAE769
S31508023B2078B500240094124E124D032005F048F988
S31508023B30F16808690090641CAC4288BF78BD009899
S31508023B4010F0004FF1D0009A002042F001020092D4
S31508023B50009A0A610A690092401CA84203D8009A90
S31508023B6012F0010FF6D1BDE87840032005F028B916
S31508023B70A84D0010400D0300072214F033BB0322A0
S31508023B8014F030BB014805F063BE0000A04C0010DB
S31508023B90014805F067BE0000A04C001008B50B46A8
S31508023BA000920246014805F093FE08BDA04C00109B
S31508023BB010B50120FEF79EFD0220FEF79BFD0C487C
S31508023BC0018821F002010180FEF7CCFB094AD2E9FD
S31508023BD00032C01A71EB020028BF0DF001FC022068
S31508023BE0FEF774FDBDE810400120FEF76FBD000028
S31508023BF0100C00402000001010B5044690F8CE00C4
S31508023C00022818BF032804D02046BDE8104000F059
S31508023C10E2BF4888012818BF10BD0020C4F8D000AA
S31508023C20D4F824058268204690472046BDE810400D
S31508023C3003F02FBA10B5044602234022812100F070
S31508023C40E7FB022340221946204600F0E1FB402307
S31508023C50034A0221204603F048F8002010BD00005E
S31508023C604061001030B504468888002804BFC88819
S31508023C70002816D1488800F07F0594F8CE0003285C
S31508023C800FD084F8CF502946204603F01BFA204667
S31508023C9003F0FFF9002D0CBF0120022084F8CE00A4
S31508023CA030BD2046BDE8304000F095BF10B5044649
S31508023CB04888012811D0022818BF10BD8A8812F038
S31508023CC0FF0F18BF10BD20694168120A062A24D2BE
S31508023CD0DFE802F0231014181C200120C4F8D000D3
S31508023CE0D4F824058268204690472046BDE810404D
S31508023CF003F0CFB921F0700110310EE021F0700106
S31508023D0020310AE021F07001303106E021F070011D
S31508023D10403102E021F07001503141602046BDE891
S31508023D20104003F0B6B9F0B583B005460C461746FF
S31508023D3000216846FEF7D6FA0026002C18BF002492
S31508023D400FD005EB8403196941B1D86B30B90E60FF
S31508023D504E608E602146284600F03CF8641C072C0B
S31508023D60EFDB002F18BF00210DD005EB8100026999
S31508023D70002A1CBFC06B002802D0166056609660E7
S31508023D80491C0729F1DB6846FEF7B1FA03B0F0BD14
S31508023D9006F07FB906F0B8B970B505460C4609684B
S31508023DA00068FFF752FB012111EBE07208BF206899
S31508023DB029680023014429600B702168081A2060CB
S31508023DC0104670BD002814BF002001487047000045
S31508023DD0184D001000B528B100EB8100016909B140
S31508023DE0C06B08B1002000BD40220349022003F03F
S31508023DF0E5FB012000BD000040610010034A10B532
S31508023E000021116004F04CFA002010BDE0010010F8
S31508023E102DE9F041064616F0EFF9040014BF174DD6
S31508023E20BDE8F081E06AB042204620D116F0CEF90C
S31508023E3007460121204616F0AFF9200018BF854231
S31508023E400DD0D0E90012002A18BF1160002918BF48
S31508023E504A6021466A68C1E900526C6014602346CA
S31508023E6000220221032000F00DF93C4602E016F07A
S31508023E70ADF90446002CD5D1BDE8F081FC08001046
S31508023E807047000010B50446042020800220608096
S31508023E900020A080E080372308A2382104F1080018
S31508023EA0FFF7BCFA104830221049D0F850042064B3
S31508023EB004F14400FCF7D1FA012010BD4E65746482
S31508023EC075696E6F20476F202876342E322E322E71
S31508023ED0312920627920536563726574204C6162C8
S31508023EE073204C4C4300000000C0000854C400086C
S31508023EF070B51E4D002455F82400002818BF8047C7
S31508023F00641C102CF7D300F057F800F031F801F0D2
S31508023F1089FB02F03AFB00F059FE01F081FB01F041
S31508023F201BFD03F025FA00F025F801F0F0FD02F07A
S31508023F30A6F803F09DF903F0B5FF16F0A9F90EF0FD
S31508023F40C3FE01F001FB01F0BFFB02F077F801F0B6
S31508023F5025FF0020FEF7EEF901F04CF900F098FA79
S31508023F6012F02CFFBDE870400DF016BAF8060010E4
S31508023F7005F0ECB84FF04A407047802070470000C1
S31508023F8000B587B00146684616F04CFC00280EDBE1
S31508023F9003980849C07B00EB800051F820004FF4D3
S31508023FA0C02131EA000002BF012007B000BD00208F
S31508023FB007B000BD705B05080120704740F201207A
S31508023FC070470020704700002749284A4FF0FF0C27
S31508023FD00B5C125C2648183101EB830100EB830067
S31508023FE051F8041C50F8043C12F0010F18BF4FF4A4
S31508023FF07F4C01F1180012F0020F18BF01F11C00E4
S31508024000028822EA0C020280088B8A8B104328D186
S31508024010B1F1804F1CBFA1F18040B0F5806017D086
S31508024020A1F18040B0F500601CBFA1F18040B0F557
S3150802403040600DD0A1F18040B0F5C0501FBFA1F17C
S315080240408040B0F5E050A1F18040B0F5005004D1AF
S31508024050084801681940016003E0074801681940E9
S315080240600160012070470000107C0508187C0508CD
S31508024070A87C050840380240443802404FF40070D4
S31508024080704770472DE9F0410F4E144682B03268E8
S3150802409005460F469846002A04BF02B0BDE8F081DD
S315080240A000216846FEF71EF9220442EA052040EA84
S315080240B007014246306803F09BFA6846FEF717F98D
S315080240C002B0BDE8F0810000E00100104FF0FF30B9
S315080240D070474FF0FF3070474FF0FF30704710B50A
S315080240E0D0F8242552689047002010BD10B5044622
S315080240F0D0F82405026820469047D4F82805806837
S315080241008047002010BD0000014815F039B80000AC
S31508024110C84C001013460A460146014805F0E8BB9A
S31508024120A04C001010B582B0DDE9044CCDE9004C74
S3150802413007F000FA02B010BD70B5054659B1D5F8B8
S3150802414024054269002A38D095F8CE00032804BF10
S315080241502846904731E095F8CD0005F1D4040228A7
S315080241602BD1A169A068814207D9081AA06182B237
S315080241702846E16803F0D2FE1FE0E169B1FBF0F2DE
S3150802418000FB121262B981420AD3206A814207D21F
S3150802419000221146284603F0C1FE002020620CE0E8
S315080241A0D5F82405C16829B195F8CE00032804BFBD
S315080241B028468847284603F060FC002070BD0000A8
S315080241C000B50A7812F0700202D0102A15D107E05B
S315080241D04A78062A04D00A2A06D00B2A0DD108E004
S315080241E000F0F9FC022000BD0122054901F0D8FFC2
S315080241F003E048880349C0B20861002000BD0000F8
S31508024200300200102002001030B50C461546002276
S315080242100221FFF7DFFB002808BF30BD00F10D02BF
S3150802422041880144206878B1904288BF81422ED9DC
S315080242302B68934228BF994229D94278052A04BF96
S315080242400278072A23D10BE0002022602860206822
S3150802425088421CD24378042B0BD0052B0ED010E0D3
S315080242605A78042A01BF1A78092AC01D20600ED17D
S31508024270EEE70278092A08BF286002E000780728D4
S3150802428007D020680278104420608842E2D30020D2
S3150802429030BD012030BD05F05FBF000010B4084CE8
S315080242A0DDF804C0245C0C600649095C1160064905
S315080242B0095C19600549085CCCF8000010BC704717
S315080242C014680508126805081868050816680508B6
S315080242D000F47F4310B54FF0000CC0B2B3F5807FEF
S315080242E006D0B3F5007F07D0B3F5407F0DD108E0BD
S315080242F0401EFEF74CFD02E0401E04F0DFFD844638
S3150802430003E0401EFEF758FE8446604610BD0000D4
S315080243100349002008604860024908600120704786
S31508024320786A001070000010014909680840704751
S315080243307000001010B5044684B014A0FEF76CFE97
S31508024340002212A1CDE9002113460290022204217D
S3150802435020460CF0FDFB1848D0F8041100291CBFB2
S315080243604969002904F1400409D0888BCA8B0B8C51
S31508024370498C20806280A380E18004B010BD0020B1
S3150802438020806080A080E08004B010BD4E65746411
S3150802439075696E6F20476F202876342E322E322E9C
S315080243A0312920627920536563726574204C6162F3
S315080243B073204C4C43000000541000100020704734
S315080243C010B541B10C48FFF723FDBDE810400121A5
S315080243D009480EF0DDBB0123084A094906480EF0D2
S315080243E0EDFC002808BF10BD034B0022BDE81040B3
S315080243F0114604A0FFF734B8D86500109C020010D5
S31508024400E80200105344000070474FF0FF3070472F
S3150802441030B50C4611F0800F01F07F0C0CEBCC0185
S3150802442000EB810114BFD43101F53C7181F800C05B
S31508024430E4094C708A60CB7018BFA1F806C0022B3B
S3150802444004BF00220A7101F0B1FB002030BDC0682A
S31508024450406900F001007047014814F09ABE000056
S31508024460C84C0010014805F08EBA0000A04C001096
S31508024470014805F091BA0000A04C001008B50B4699
S3150802448000920246014805F0A9FA08BDA04C0010A0
S31508024490014805F06DBB0000A04C001010B504469B
S315080244A051B1D4F82405826942B394F8CE000328A0
S315080244B004BF2046904721E094F8CD1004F53C70DD
S315080244C003291BD18268816991420AD9891A8161B5
S315080244D0914228BF11468AB2C168204602F0D1FD30
S315080244E00CE0D4F82405016929B194F8CE00032812
S315080244F004BF20468847204602F0CBFD002010BDA7
S3150802450010B504460D480122FEF74AFF98B1036822
S315080245100021002BC8BF0A4A08DD00EB010C9CF8F3
S3150802452004C002F801C0491C8B42F6DC044A812108
S315080245302046FFF7DAFA002010BD0000184D0010D9
S315080245408061001010B50446812100F05AFB022151
S31508024550204600F056FB002010BD10B5044600792F
S3150802456094F86E10884208BF10BD052804D10122AE
S3150802457011462046FFF7D7FB94F86E0020710728EC
S3150802458012D2DFE800F004090909090A0900002025
S31508024590A4F88C00C4F8840010BD20460022BDE8A9
S315080245A010400121FFF7BFBBBDE81040FBF78EBDE7
S315080245B0012070471548016841F00F01016014494E
S315080245C04FF028400860134A4FF4207010608203A7
S315080245D01148026000204860104B1860104B1860A2
S315080245E08860DFF840C0C023CCF800300E4B1A6052
S315080245F04FF0C842CA600CF1040289151160191DF0
S3150802460008600221082000F029BF00003038024065
S31508024610000002400004024000080240040402406E
S3150802462004080240080402400808024000207047B5
S3150802463038B54FF4805004F065F84FF4804004F022
S3150802464051F84FF4004004F04DF8002301241A46AD
S3150802465019460520009402F091FB00231A461946D2
S315080246600720009402F08AFB00231A461946062000
S31508024670009402F083FB00231A4619461D20009473
S3150802468002F07CFB00231A4619461F20009402F00A
S3150802469075FB00231A4619461E20009402F06EFB8B
S315080246A000231A4619462A20009402F067FB0023C3
S315080246B01A4619461520009402F060FB00231A4692
S315080246C019461420009402F059FB012038BD032034
S315080246D0704700000048704740420F0000281CBF80
S315080246E0012070472DE9F04F85B0834600216846C0
S315080246F0FDF7F8FDDFF86C83D94C0126DA48C8F8CD
S315080247000860E067072084F880004FF00809402710
S3150802471084F86F903046002504EB8001CD6321189A
S31508024720401C81F833700728F6DBA8F8005002957A
S3150802473003AA02A920460395FFF766FD002818BFBB
S31508024740DFF828A341D00298817801F07F00072874
S3150802475080F27E81039A9278032A00F2798111F017
S31508024760800F1CBF04EB8001CE6302998988082951
S3150802477018BF102904D0202918BF402940F06881A3
S31508024780221882F833108B2141430AEB8102A2F5E3
S315080247900B7104EB80020D604D608D601161029908
S315080247A0C97801F00301012900F04B81400001FAA2
S315080247B000F0B8F8001003AA0843A8F8000002A9F6
S315080247C02046FFF721FD0028BDD1B8F800000028D1
S315080247D000F03E814FF47A70FDF7DCFD0021584661
S315080247E000F074FC0022A249432003F001F90120DB
S315080247F003F068FF0A21092000F030FE0A210B2087
S3150802480000F02CFE0A210C2000F028FE02230122C9
S315080248100021092000F050FB0223012200210B206F
S3150802482000F04AFB0223012200210C2000F044FB7F
S315080248304FF4804003F066FF802003F04BFF4FF0F1
S31508024840805003F057FF8C498A480C46C1F8240564
S315080248508A48C1F828058A48C1F82C05A670A78097
S31508024860E67284F8009004204FF0A0416070881523
S31508024870E080022020728348C4E90310002001EB7D
S31508024880401202F5106C04EB800302F53062C3F89D
S3150802489014C01A656278401C8242F0D82278002039
S315080248A0002A0BD901EB003204EB800302F5805291
S315080248B0C3F88C202278401C8242F3D801F5606046
S315080248C0C4F8C80084F8CE6084F8CF506078002116
S315080248D000280FD901EBC10004EB8000D4304670E2
S315080248E00170C180C570C0E9027505616078491C0E
S315080248F08842EFD80021C0B2002810D901EBC100C6
S3150802490004EB800000F53C7045700170C180C570EB
S31508024910C0E9027505616078491C8842EED803F041
S31508024920FFFDE068C16841F0400141F08041C16085
S31508024930FFF7F6F8617A4FF45020002918BF4FF4B2
S31508024940E810E1688863142004F076F9D4F8C80000
S31508024950294605602069026822F4C05242F0030221
S315080249600260E0688022426267F31F4162F30F0128
S31508024970816201EB1143294663F30F0162F31F417A
S31508024980C0F8041101EB114262F30F0165F31F41EE
S31508024990C0F8081101EB114262F30F01C0F80C11BD
S315080249A01021354801F0A0FC334801F07DFC20694E
S315080249B0056145614FF0FF378761C561617800205F
S315080249C0FF264FF0904C002911D904EB8002536957
S315080249D0196811F0004F14BF6146294619605169DA
S315080249E00D6151698E606178401C8142EDD80020C4
S315080249F0C9B2002911D904EB8002136D196811F0A6
S31508024A00004F14BF614629461960116D0D61116D7B
S31508024A108E606178401C8142EDD82069016941F4B3
S31508024A2080710161E06885614761174982698A4335
S31508024A301143816103F0E0FC0F48D0F828050068AD
S31508024A4080476846FDF753FC05B00020BDE8F08FA5
S31508024A506846FDF74CFC05B00120BDE8F08F000062
S31508024A60184D001060010010E45F0010DC520010BF
S31508024A70F17A020854020010A84D001080020010B4
S31508024A80040200100008005010380C8001207047FC
S31508024A90002202600A60704700F47F41C0B2B1F595
S31508024AA0807F0AD0B1F5007F0AD0B1F5407F1CBFDE
S31508024AB000207047401EFEF72CBC401EFEF7E1B9E7
S31508024AC0401E04F08EBA2DE9F0478846174600F4D0
S31508024AD07F444FF000096425C6B22CE0B4F5807F06
S31508024AE006D0B4F5007F09D0B4F5407F14D10BE0A7
S31508024AF0701E3A464146FEF7C6F90AE0701E3A4665
S31508024B00414604F070FA04E0701E3A464146FEF742
S31508024B1002FC002812DB0AD14FF00000FDF700FC68
S31508024B2060B100210122202000F018FF03E032259F
S31508024B303F1A804481440FB16D1ECFD24846BDE864
S31508024B40F0874FF04A407047072814D2DFE800F092
S31508024B5013040713100A0D0040F2011070474FF4B0
S31508024B608170704740F2031070474FF482707047A5
S31508024B7040F20130704740F201207047B0F5827F5B
S31508024B8004BF062070470EDCA0F58070013804BF0A
S31508024B9001207047012804BF02207047022804BF7B
S31508024BA0052070470AE0A0F50070013804BF03200B
S31508024BB07047B0F5807F04BF042070470020704715
S31508024BC00020704700207047012070477047012077
S31508024BD070470020704710B50A78044612F0800F15
S31508024BE003D0802100F022F806E0C988002914BF04
S31508024BF00021802100F01AF82046BDE8104002F094
S31508024C0039B80B4611F0800F01F07F0200B502EBAE
S31508024C10C20100EB810114BFD43101F53C710A705F
S31508024C20DA094A7002F043F8002000BD00B50A46C8
S31508024C3011F0800F02F07F0314BF03EBC30102EBEE
S31508024C40C20100EB810114BFD43101F53C714FF06A
S31508024C50010C81F802C00B70D2094A7000F0D2FF2B
S31508024C60002000BD4B1E0029C8BF08490CDD10F8FC
S31508024C7001CB8CEA126C51F82CC08CEA0222B3F1F1
S31508024C80000CA3F10103F2DC10467047986305088D
S31508024C907047000013460A460146014814F0ECBA6A
S31508024CA0C84C001006F0C8BC38B50D4649880446FB
S31508024CB0080A012804D002280AD003285BD113E087
S31508024CC0D4F82C15A0780A6869469047014642E04E
S31508024CD0D4F82415A0788A6A6946904701460220C4
S31508024CE04870C4F8301536E0C8B2062843D2DFE861
S31508024CF000F0030B131B232BD4F82C15A0784A6853
S31508024D0069469047014626E0D4F82C15A0788A68A9
S31508024D106946904701461EE0D4F82C15A078CA6861
S31508024D2069469047014616E0D4F82C15A0780A6918
S31508024D306946904701460EE0D4F82C15A0784A69D0
S31508024D4069469047014606E0D4F82C15A0788A6988
S31508024D50694690470146BDF8000000281ABFEA884E
S31508024D60002A38BD824288BF0246ADF80020204696
S31508024D7001F016FA38BD29462046FFF72CFF38BD42
S31508024D8038B5054601EBC10005EB80006A46D0F846
S31508024D90040384B20E48FEF7CBFAB8B1402CC8BF5A
S31508024DA040240C4B011D0022002C06DD13F801CB12
S31508024DB0521C01F801CB9442F8DC0460009828B929
S31508024DC04023044A0221284601F08FFF002038BDFD
S31508024DD0184D0010406100104FF0FF30704770B553
S31508024DE0044682B00D46164618462BF063FECDE9F8
S31508024DF00001324629462046FEF7EFF802B070BD9A
S31508024E002DE9FF4F82468DB04069171E8B46C26B4D
S31508024E10DDE91A6889B2DDF87090104400EBC10525
S31508024E204FF000042BD9298850460DF08DFC1099B5
S31508024E30FBF786FCF8B996B12A465146684619F038
S31508024E402FF87069816D084400EB0802314606A8FE
S31508024E5019F02EF806A9684613F010FE58B1DAF8CA
S31508024E600C000BEB040141EA0040C9F8000011B03E
S31508024E700120BDE8F08F641C0835BC42D3D300205C
S31508024E80C9F8000011B0BDE8F08F06282CBF4FF014
S31508024E90FF302030704710B5FA210160084601F04C
S31508024EA0E5FB012010BD000090283ABF0149085CC5
S31508024EB00020704732A5050838B504460846902CE6
S31508024EC028BF38BD032B04BF022101222CD0042B94
S31508024ED00CD09AB1012B0DD0022B0CBF0221012155
S31508024EE04FF000020CBF0323012310E00321002226
S31508024EF013460CE002210022012308E0052B0CBF11
S31508024F00022100214FF0000218BF00230CD00090A6
S31508024F10204601F0F9F801B020460023BDE83040EA
S31508024F201A46194602F0A6B90023F0E7074A902363
S31508024F30002908BF704703E012F801CB00F801CB3D
S31508024F40491E38BF70475B1EF6D2704732A5050860
S31508024F5010B51420002100F08BFB0020184A0146E8
S31508024F6022F81010401C0928FADB164801600022B4
S31508024F701549062002F03CFD00221449072002F0DA
S31508024F8037FD00221249082002F032FD002211499B
S31508024F90092002F02DFD00220F490A2002F028FD01
S31508024FA000220E49172002F023FD00220C49282070
S31508024FB002F01EFD4FF4804003F0A4FB012010BD51
S31508024FC04C080010003C0140856002089560020802
S31508024FD0A5600208B5600208C5600208D560020825
S31508024FE049690208902824BF00207047F0B5044694
S31508024FF00F46050900F00F00012101FA00F685B0F7
S31508025000002102A8FDF76EF9154A32F815009FB17C
S31508025010304205D002A8FDF76AF905B00020F0BDB6
S31508025020304322F815002E2C13D100231A461946AE
S31508025030204602F01FF90CE0B04322F815002E2C88
S3150802504007D1002000900223064A0121204601F0DA
S3150802505095FE02A8FDF74BF905B00120F0BD000048
S315080250604C080010C96F020812494FF0FF30086059
S3150802507048608860C1F80001C1F80401C1F8080156
S315080250800E480D498160C160016141618161C16259
S3150802509001638163BFF35F8F0A4AC16308491160DE
S315080250A0A2F1040108600848016841F4E0210160A0
S315080250B07047000080E100E07D26020800FE01201C
S315080250C00007FA050CED00E024ED00E0F0B51D4CF2
S315080250D083B00F462088002804BF03B0F0BD1A4DDE
S315080250E000216846FDF7FEF80026A1680120E7B10F
S315080250F0002904BFA06001241ED105EB84000169C2
S3150802510000291CBFC06B002806D00122214628466A
S31508025110FEF746F90028F8D1641C072CEDDB85F862
S315080251206E602846FFF719FA06E029B1A66085F8E7
S315080251306E002846FFF711FA6846FDF7D8F803B05D
S315080251400120F0BD60010010184D001008B10729B2
S3150802515001DB0020704730B583B005460C460021B6
S315080251606846FDF7BFF805EB8400016900291CBFF4
S31508025170C06B002812D00F4830F8140010F0010F47
S3150802518012D0012221462846FEF70AF90028F8D14C
S315080251906846FDF7ACF803B0012030BD6846FDF756
S315080251A0A6F803B0002030BD22462946002002F0A8
S315080251B073FCEDE7E45F001070B504460D460B4834
S315080251C00CF09AF9002C08BF70BD0848012308495B
S315080251D02246836111F020FE4FF47A7005FB00F136
S315080251E0BDE8704001480CF08EB80000786A0010DD
S315080251F0A186020810B502480CF07EF9012010BDFE
S31508025200786A00102DE9F04F87B05748DFF85091B9
S31508025210CDF81090DFF84CA1046800260AF1600860
S31508025220002C04BF07B0BDE8F08FD4E902108968E4
S31508025230884707463020039001A80290D4E9021055
S315080252400DF1140B896806AD8847DDE902215B4634
S31508025250009527F05CF9386810F0020F08D1D4E9F6
S3150802526002C040F60C12DCF80CC03E4B0199E0472E
S31508025270DFF8F8B0002558F82500B0F1FF3F03D053
S3150802528010EB0B0027D125E001F07EF9386810F003
S31508025290020F10D008EB850001F087FF4FF0000CD3
S315080252A0CDF800C0D4E902160422D1F810C001468E
S315080252B004AB30460DE00AEB85005346C0F8609011
S315080252C000200090D4E902C040F60C12DCF810C0A7
S315080252D00199E04701266D1C002E3CD1322DCAD316
S315080252E00598B96900EB800001EB800501F04CF9DD
S315080252F0A8682AF08BF906002DD0386810F0020F3C
S3150802530005D0AA6830460199FBF7A7F807E0D4E961
S3150802531002C00199DCF80CC0AA683346E047FF22AE
S31508025320C82106F16000FBF78EF9C6F86090D4E949
S3150802533002200199526A904701F026F90020AA68CC
S315080253400090D4E902C00199DCF810C03346E04760
S3150802535030462AF059F903F0B3FD07B0BDE8F08FDD
S31508025360444C544200C000085C000010BCB3ABBDFC
S3150802537018484FF0FF310A0CC0E900120021C0E9B3
S3150802538002111548016841F0080101601349042019
S31508025390088000200A1D1080121D1080104B022260
S315080253A01A80104A1080121D10800F4B53221A8041
S315080253B00E4A1060401E1A1D10600D4A0120108008
S315080253C0088840F00100088000220A49322002F0CB
S315080253D00FBB00002000001040380240000C0040BD
S315080253E00C0C0040180C0040280C0040340C0040FD
S315080253F0140C0040B13B020830B583B004460D4692
S3150802540000216846FCF76EFF0948C0E900450948CD
S315080254100460FCF7A7FF001B71EB050002D30649DF
S31508025420022008806846FCF762FF03B030BD000020
S3150802543020000010340C0040140C0040014908609A
S3150802544000207047E0010010002070474FF0FF303F
S31508025450704770474FF07740704700004207D20EF8
S315080254600F23934001F00F0191404FEA007C064A50
S31508025470000902EB80204FEADC7200EB8200026A26
S315080254809A4311430162704700000240002808BF90
S31508025490704710B44FF0000C81F800C003234B701C
S315080254A00478022354B1CC545B1CDBB201F803C066
S315080254B05B1C10F8014FDBB2002CF4D113800B7081
S315080254C010BC704730B40A7800EB8202D2F850C09A
S315080254D0DCF80050DCF810300C698A68ACB1144468
S315080254E0641EB4FBF2F464F3DC43C3F3C9446243B7
S315080254F062F31203CCF81030097845F0044200EB47
S315080255008100006D026030BC704762F312036FF3CC
